:0B000E003F065B4F666D7D077F6F387B
:1018400044010E0000000041010D0041010C004167
:0B185000021C004100000041000100EC
:10139800C2AF900001E004F0E0C394C8401CB2A5BD
:1013A800E4F090010CE004F0E0943C400DE4F0A37C
:1013B800E004F0E0943C4002E4F0900000E004F027
:1013C800E0C394044002E4F043900F900000E0FF73
:1013D800240EF582E43401F583E090000E93F58045
:1013E800900001E0C394645007EFB4010343808088
:1013F800900000E014600E14600F14601024037055
:101408000EC290800AC2918006C2928002C293D214
:01141800AF24
:0114190022B0
:1014FC0090FFFD120208EBF0A3EAF0A3E9F08508D7
:10150C0083850982E0F9A3E0FAA3E08508838509C5
:10151C0082C9F0A3EAF0A3E9F0C2AF90010DE0FF9D
:10152C0075F00A84A3F0EF75F00A84A3E5F0F0904F
:10153C00010CE0FF75F00A84900110F0EF75F00AD1
:10154C0084A3E5F0F090010FE07002B2A6D2AF7F59
:06155C002812141A80C3DE
:100F040090FFFD120208EBF0A3EAF0A3E9F08508D4
:100F140083850982E0F9A3E0FAA3E08508838509C3
:100F240082C9F0A3EAF0A3E9F0B2A420A14790019A
:100F34000CE004F0E0C3943C4006E4F0A3E004F0C9
:100F440090010DE0C3943C4002E4F090010DE0FFF9
:100F540075F00A84A3F0EF75F00A84A3E5F0F0902D
:100F6400010CE0FF75F00A84900110F0EF75F00AAF
:100F740084A3E5F0F020A24690010CE0FF60041485
:100F8400F08011EF700E90010DE0600814F09001F4
:100F94000C743BF090010DE0FF75F00A84A3F0EFB0
:100FA40075F00A84A3E5F0F090010CE0FF75F00AF7
:100FB40084900110F0EF75F00A84A3E5F0F07F0A45
:060FC40012141A020F2DA9
:0E18D700758911758DEC758B78D2ABD28E228F
:03001B000216B119
:1016B100C0E0C0F0C083C082C0D075D000C000C0FF
:1016C10001C002C003C004C005C006C0071218C48F
:1016D100758DEC758B78121398120D38D007D006E2
:1016E100D005D004D003D002D001D000D0D0D08218
:0716F100D083D0F0D0E032FD
:1011380012189B1218B01218D790FFFF120208E479
:10114800F07B017A01791290FFFD120208EBF0A3FF
:10115800EAF0A3E9F07B007A00790090FFFD120223
:1011680008EBF0A3EAF0A3E9F07B007A007900909D
:10117800FFFD120208EBF0A3EAF0A3E9F07BFF7A87
:101188001479FC1202DE90FFFF1202087401F0FBD2
:101198007A00790290FFFD120208EBF0A3EAF0A3AF
:1011A800E9F07B007A00790090FFFD120208EBF06D
:1011B800A3EAF0A3E9F07B007A00790090FFFD1222
:1011C8000208EBF0A3EAF0A3E9F07BFF7A0F7904B9
:0611D8001202DE0218679E
:0500030069646C65005A
:06148C0090FFFD120208B2
:10149200C2AF9002DBE0F9A3E0FAA3E085088385FE
:1014A2000982C9F0A3EAF0A3E9F0850883850982DD
:1014B200E0FBA3E0FAA3E04A4B603185088385098B
:1014C20082E0FBA3E0FAA3E0F990001912017F90F9
:1014D20002DBEBF0A3EAF0A3E9F0D2AF8508838543
:1014E2000982E0FBA3E0FAA3E0F98008D2AF7B0017
:0414F2007A00790003
:0614F60090000302020851
:1017B60090FFFD120208EBF0A3EAF0A3E9F07B002C
:1017C6007A007900C003C002C001850883850982BA
:1017D600E0FBA3E0FAA3E0F990000D1201AF900040
:0417E60003020208F0
:100FCA0090FFFD120208EBF0A3EAF0A3E9F085080E
:100FDA0083850982E0FBA3E0FAA3E04A4B7003028F
:100FEA00107CC2AF90000312022CE0FBA3E0FAA32C
:100FFA00E0F9C003C002C001850883850982E0FBCD
:10100A00A3E0FAA3E0F912013090000612022CE0E4
:10101A00FF850883850982E0FBA3E0FAA3E0F99043
:10102A000016EF1200B290001774011200B290007D
:10103A0018E41200B2E92406F9E43AFA1217B6855E
:10104A000883850982E0FBA3E0FAA3E0F9C003C0A4
:10105A0002C001850883850982E0FBA3E0FAA3E0C8
:10106A002406F9E43AFA90000A1201AFD2AF7F01DE
:0A107A0080027F0090000A020208C5
:10127E00900358EBF0A3EAF0A3E9F0900358E0FBDB
:10128E00A3E0FAA3E02404F9E43AFAC003C002C0D2
:10129E0001900358A3E0FAA3E0F99000011201AF08
:1012AE00900358E0FBA3E0FAA3E0F99000041201CA
:1012BE000C00000000E92404F9E43AFAC003C0026D
:1012CE00C001900358E0FBA3E0FAA3E0F9900008F8
:1012DE001201AF900358E0FBA3E0FAA3E02404F957
:1012EE00E43AFAC003C002C001900358A3E0FAA387
:1012FE00E0F990000B1201AF900358E0FBA3E0FA67
:07130E00A3E0F9E40200A0D6
:1009680090FFFD120208EBF0A3EAF0A3E9F090FF74
:04097800FD12020862
:10097C0090000312022CE0FBA3E0FAA3E0F9900034
:10098C000112017F850883850982EBF0A3EAF0A3AD
:10099C00E9F0850883850982E0FBA3E0FAA3E0F97E
:1009AC0090000412017FC003C002C0019000061227
:1009BC00022CE0FBA3E0FAA3E0F99000041201AFD3
:1009CC0090000312022CE0FBA3E0FAA3E0F99000E4
:1009DC000112017FC003C002C00190000612022C5C
:1009EC00E0FBA3E0FAA3E0F99000071201AF90003E
:1009FC000612022CE0FBA3E0FAA3E0F9C003C0024C
:100A0C00C001850883850982E0FBA3E0FAA3E0F925
:100A1C0090000412017F9000071201AF90000612A3
:100A2C00022CE0FBA3E0FAA3E0F9C003C002C00172
:100A3C00850883850982E0FBA3E0FAA3E0F9900026
:100A4C00041201AF90000612022CE0FBA3E0FAA303
:100A5C00E0F9C003C002C00190000312022CE0FBBD
:100A6C00A3E0FAA3E0F99000011201AF9000031289
:100A7C00022CE0FBA3E0FAA3E0F9C003C002C00122
:100A8C0090000612022CE0FBA3E0FAA3E0F9900020
:100A9C000D1201AF90000312022CE0FBA3E0FAA3AD
:070AAC00E0F9740112004B98
:060AB30090000902020898
:100AB90090FFFD120208EBF0A3EAF0A3E9F090FF22
:040AC900FD12020810
:100ACD0090000312022CE0FBA3E0FAA3E0F99000E2
:100ADD000712017FC003C002C00190000312022C57
:100AED00E0FBA3E0FAA3E0F990000412017F90006F
:100AFD00071201AF90000312022CE0FBA3E0FAA352
:100B0D00E0F990000412017FC003C002C001900003
:100B1D000312022CE0FBA3E0FAA3E0F99000071208
:100B2D00017F9000041201AF90000312022CE0FB34
:100B3D00A3E0FAA3E0F990000D12017F85088385EB
:100B4D000982EBF0A3EAF0A3E9F085088385098219
:100B5D00E0FBA3E0FAA3E0F990000112017FC003CE
:100B6D00C002C00190000312022CE0FBA3E0FAA327
:100B7D00E0F9D082D083D0E06B7008E96582700314
:100B8D00EA6583702E90000312022CE0FBA3E0FABD
:100B9D00A3E0F990000712017FC003C002C00185D8
:100BAD000883850982E0FBA3E0FAA3E0F990000138
:100BBD001201AF7B007A007900C003C002C0019022
:100BCD00000312022CE0FBA3E0FAA3E0F990000D64
:100BDD001201AF850883850982E0FBA3E0FAA3E04B
:060BED00F974FF12004B39
:060BF3009000060202085A
:1017EA00E4900357F0F0900357E0FFC39404501AB3
:1017FA00EF75F00EA4242FF9740235F0FA7B01126A
:0A180A00127E900357E004F080DC2A
:0118140022B1
:10131500E4FF7B0190035704F0A37402F0A3746704
:10132500F0A3EBF0A37402F0A37484F090035AE0E9
:10133500FBA3E0FAA3E0F9C003C002C00190035784
:10134500E0FBA3E0FAA3E0F99000191201AF9003C6
:1013550058E475F01D1200D490035BE475F01D127E
:1013650000D40FEFB403C57B007A007900C003C039
:1013750002C001900357E0FBA3E0FAA3E0F9900057
:10138500191201AF9002DB7401F0A37402F0A3748B
:0213950067F0FF
:011397002233
:101884009002DE74FFF090022EF0E4780DF69002E0
:071894001EF090021DF0227E
:1015BF0090FFFF1202087403F07B017A0279DF902B
:1015CF00FFFD120208EBF0A3EAF0A3E9F07B007A2B
:1015DF0000790090FFFD120208EBF0A3EAF0A3E9F7
:1015EF00F07BFF7A00790390FFFD120208EBF0A366
:1015FF00EAF0A3E9F07BFF7A1879151202DE781171
:09160F00A60308A60208A60122A8
:10189B001218841217EA1213157B017A02791F12A0
:0518AB00127E0215BFD2
:0610840090FFFF120208BC
:10108A00850883850982E4F0C2AF90021EE06003FE
:10109A0002113090021DE060030211309002DEE07E
:1010AA00850883850982F0850883850982E0FFC364
:1010BA009404501CEF75F00EA4242FF582E4340238
:1010CA00F583E0700B850883850982E004F080D7F8
:1010DA00850883850982E0FF9002DEF0FE90022EE9
:1010EA00E06E60429002DEE090022EF0EF75F00EA4
:1010FA00A42430F582E43402F583E0FBA3E0FAA3EA
:10110A00E0F990000A12017F780AA60308A60208ED
:10111A00A601780A860308E6FA08E6F9900018E4B8
:08112A001200B2121562D2AFEF
:061132009000010202081A
:10186700780DE67017780A860308E6FA08E6F9782D
:0D1877000EA60308A60208A60112161822EC
:0607B40090FFF71202089D
:1007BA00850883850982A3A3E4F090021FE08508D7
:1007CA0083850982A3F0900220E0FBA3E0FAA3E06C
:1007DA00F990000412017F90000412017F90000337
:1007EA0012022CEBF0A3EAF0A3E9F085088385094D
:1007FA0082E4F0850883850982A3E0FF8508838562
:10080A000982E0C39F4003020962C2AF900003124B
:10081A00022CE0FBA3E0FAA3E0F990000A12017FA0
:10082A0090000612022CEBF0A3EAF0A3E9F0900084
:10083A000612022CE0FBA3E0FAA3E0F990001C12D6
:10084A00001E700302093290001C74FF12006D60D2
:10085A000302093290001712001E30E10302091C3C
:10086A0090000312022CE0FBA3E0FAA3E0F9900047
:10087A000712017F90000312022CEBF0A3EAF0A307
:10088A00E9F090000612022CE0FBA3E0FAA3E0F9DB
:10089A0090001612001E850883850982A3A3F0E939
:1008AA002406F9E43AFA120AB990000612022CE078
:1008BA00FBA3E0FAA3E02406F9E43AFA90FFFD125A
:1008CA000208EBF0A3EAF0A3E9F090000512022C6B
:1008DA00E075F00EA4242FF9740235F0FA7B0112A8
:1008EA00096890000612022CE0FBA3E0FAA3E0F9E3
:1008FA0090001874011200B29002DEE0FF850883AE
:10090A00850982A3A3E0FEC39F501D9002DEEEF08C
:10091A00801690000612022CE0FBA3E0FAA3E0F98D
:10092A0090001C74011200B290000312022CE0FB2A
:10093A00A3E0FAA3E0F990000412017F90000312E9
:10094A00022CEBF0A3EAF0A3E9F0D2AF8508838585
:08095A000982E004F00207FD30
:06096200900009020208EA
:1018C400780DE6B4010C90021EE0C394FF5003E0CF
:0318D40004F022FB
:060D380090FFFF1202080B
:100D3E00850883850982E4F0C2AF780DE664016010
:100D4E0003020E2B90021EE0D394004003E014F039
:100D5E0090021EE06003020E2B90021DE060030263
:100D6E000E2B9002DEE0850883850982F0850883CC
:100D7E00850982E0FFC39404501CEF75F00EA42485
:100D8E002FF582E43402F583E0700B850883850924
:100D9E0082E004F080D7850883850982E0FF900207
:100DAE00DEF0FE90022EE06E60419002DEE09002D8
:100DBE002EF0EF75F00EA42430F582E43402F583A4
:100DCE00E0FBA3E0FAA3E0F990000A12017F780A93
:100DDE00A60308A60208A601780A860308E6FA0802
:100DEE00E6F9900018E41200B2802F9002DEE0FFC8
:100DFE0090022EE0B50726780E860308E6FA08E67E
:100E0E00F990001612001E75F00EA4242FF582E440
:0F0E1E003402F583E0D3940140031218E5D2AFFC
:060E2D0090000102020822
:0F16670090FFFC12020812010090FFFD12020812
:10167600C2AF90000312022CA3A3E0FEA3E0FF1268
:101686000E33AA06A9078508838509827401F0A38B
:10169600EAF0A3E9F0D2AF850883850982E0FBA3CF
:0516A600E0FAA3E0F9E9
:0616AB0090000702020896
:10173E0090FFFD120208EBF0A3EAF0A3E9F0850892
:10174E0083850982E0FBA3E0FAA3E0F9EA494B6046
:10175E0015C2AF850883850982A3E0FAA3E0AE0225
:0C176E00FF120BF9D2AF9000030202083A
:1005660090FFFD120208EBF0A3EAF0A3E9F090FF7A
:04057600FD12020868
:10057A0090000612022CE0FBA3E0FAA3E0F9900037
:10058A000612022CEBF0A3EAF0A3E9F0900009129C
:10059A00022CE0F9A3E0FAA3E0850883850982C961
:1005AA00F0A3EAF0A3E9F0850883850982E0FBA3BA
:1005BA00E475F0011200EAA9F0FA740F1200A09093
:1005CA00000312022CA3A3E0FF850883850982E0B9
:1005DA00FBA3E475F0011200EAA9F0FAEF1200A0F9
:1005EA0090000312022CA3E0FAEAFF85088385092A
:1005FA0082E0FBA3E475F0011200EAA9F0FAEF1217
:10060A0000A0850883850982E0FBA3E475F0011246
:10061A0000EAA9F0FA740A1200A085088385098203
:10062A00E0FBA3E475F0011200EAA9F0FA740B12D8
:10063A0000A0850883850982E0FBA3E475F0011216
:10064A0000EAA9F0FAE41200A0850883850982E08D
:10065A00FBA3E475F0011200EAA9F0FAE41200A083
:10066A00850883850982E0FBA3E475F0011200EA9C
:10067A00A9F0FAE41200A0850883850982E0FBA3A9
:10068A00E475F0011200EAA9F0FAE41200A0900061
:10069A000612022CA3A3E0FF850883850982E0FBEA
:1006AA00A3E475F0011200EAA9F0FAEF1200A09093
:1006BA00000612022CA3E0FAEAFF85088385098264
:1006CA00E0FBA3E475F0011200EAA9F0FAEF1200C8
:1006DA00A0850883850982E0FBA3E475F001120076
:1006EA00EAA9F0FA74011200A0850883850982E05C
:1006FA00FBA3E475F0011200EAA9F0FA74041200EF
:10070A00A0850883850982E0FBA3E475F001120045
:10071A00EAA9F0FA74051200A0850883850982E027
:10072A00FBA3E475F0011200EAA9F0FA74061200BC
:10073A00A0850883850982E0FBA3E475F001120015
:10074A00EAA9F0FA74071200A090000912022CA379
:10075A00E0FAA3E02409EA3401FF850883850982C7
:10076A00E0FBA3E475F0011200EAA9F0FAEF120027
:10077A00A090000912022CA3A3E02409F9AF018575
:10078A000883850982E0FBA3E475F0011200EAA957
:10079A00F0FAEF1200A090000912022CE0FBA3E08D
:0407AA00FAA3E0F9D5
:0607AE0090000C0202089D
:0918EF00758CB8E4F58AD28C2254
:03000B000216F8E2
:1016F800C0E0C0F0C083C082C0D075D000C000C0B8
:1017080001C002C003C004C005C006C007B2A312CE
:1017180018C41218EF1207B4120D38D007D006D02B
:1017280005D004D003D002D001D000D0D0D082D0D0
:0617380083D0F0D0E03286
:1018B0007589015389F0438901758CB8E4F58AD2A2
:0418C0008CD2A922FB
:1002DE0090FFFD120208EBF0A3EAF0A3E9F090FF05
:0402EE00F9120208F7
:1002F20090001312022CE0D394034003020504126F
:10030200148C90000312022CEBF0A3EAF0A3E9F0A4
:1003120090001012022CE0FBA3E0FAA3E0F990FF98
:10032200FD120208EBF0A3EAF0A3E9F0900010122C
:10033200022CE0FBA3E0FAA3E0F990FFFD12020811
:10034200EBF0A3EAF0A3E9F090000D12022CE0FB1F
:10035200A3E0FAA3E0F9120566850883850982EB1A
:10036200F0A3EAF0A3E9F090000A12022CE0FBA34A
:10037200E0FAA3E0F990FFFD120208EBF0A3EAF025
:10038200A3E9F090001612022CE0FF90FFFF120288
:1003920008EFF090000412022CE0FBA3E0FAA3E0C5
:1003A200F990FFFD120208EBF0A3EAF0A3E9F09046
:1003B200000A12022CE0FBA3E0FAA3E0F9120FCA32
:1003C20090000612022CEFF090000612022CE0645C
:1003D200016003020543C2AF90022DE004F0E0B4D5
:1003E200012390000312022CE0FBA3E0FAA3E0F940
:1003F200780AA60308A60208F690001612001E90BC
:10040200022EF08049780DE6704490000312022C0F
:10041200E0FBA3E0FAA3E0F990001612001EFF78B9
:100422000E860308E6FA08E6F990001612001ED3BB
:100432009F401B90000312022CE0FBA3E0FAA3E012
:10044200780AA60308A60208F690022EEFF09000A2
:100452000312022CE0FBA3E0FAA3E0F990001612CB
:10046200001EFF9002DEE0D39F4002EFF0E9240677
:10047200F9E43AFA90FFFD120208EBF0A3EAF0A3C6
:10048200E9F0EF75F00EA4242FF9740235F0FA7B2F
:100492000112096890000312022CE0FBA3E0FAA308
:1004A200E0F990001612001E75F00EA4242FF582BA
:1004B200E43402F583E0D39401404FE92406F9E4E1
:1004C2003AFA120AB99002DBE0FBA3E0FAA3E0F9E0
:1004D200C003C002C00190000312022CE0FBA3E0A3
:1004E200FAA3E0F99000191201AF90000312022C56
:1004F200E0F9A3E0FAA3E09002DBC9F0A3EAF0A3DB
:10050200E9F07B007A0079028054D2AF780DE6647C
:1005120001703D90000312022CE0FBA3E0FAA3E07D
:10052200F990001612001EFF780E860308E6FA08FC
:10053200E6F990001612001ED39F40141210848018
:100542000F90000612022CE07006FBFA7902800E70
:0E05520090000312022CE0FBA3E0FAA3E0F9F4
:06056000900014020208E5
:10141A0090FFFF120208EFF0850883850982E0D366
:10142A0094004058C2AF780E860308E6FA08E6240C
:10143A0006F9E43AFA120AB9850883850982E0FFB7
:10144A00780E860308E6FA08E6F990001CEF120007
:10145A00B290001874011200B2E92406F9E43AFACB
:10146A0090FFFD120208EBF0A3EAF0A3E9F07B017A
:10147A007A02791F120968D2AF1210849000010211
:02148A00020856
:1018150090FFFD120208EBF0A3EAF0A3E9F08508BA
:1018250083850982E0F9A3E0FAA3E08508838509A9
:0B18350082C9F0A3EAF0A3E9F080FEF6
:10161800780D7601780E088683088682A3E0F8A301
:10162800E0F988838982E0FD7813A308E0F6DDFA03
:101638008881A3E0F508A3E0F509D0E0FFD0E0FE3B
:10164800D0E0FDD0E0FCD0E0FBD0E0FAD0E0F9D06B
:0F165800E0F8D0D0D082D083D0F0D0E0D2AF3243
:10156200C0E0C0F0C083C082C0D0E8C0E0E9C0E003
:10157200EAC0E0EBC0E0ECC0E0EDC0E0EEC0E0EFBE
:10158200C0E0E581C39413FD780E08868308868245
:10159200A3E0F8A3E0F988838982EDF07813A30829
:1015A200E6F0DDFAA3E508F0A3E509F0780E790A82
:0D15B200E7F60809E7F60809E7F602161843
:0A18E500E581C39404F58102158427
:030000000211DE0C
:1011DE00787FE4F6D8FD9000007F007E80E4F0A3D7
:1011EE00DFFCDEFA750804750900758113021239E9
:1011FE00021138E493A3F8E493A34003F68001F2BE
:10120E0008DFF48029E493A3F85407240CC8C333F1
:10121E00C4540F4420C8834004F456800146F6DFC0
:10122E00E4800B0102040810204080901840E47EF8
:10123E00019360BCA3FF543F30E509541FFEE493B5
:10124E00A360010ECF54C025E060A840B8E493A37C
:10125E00FAE493A3F8E493A3C8C582C8CAC583CAA7
:10126E00F0A3C8C582C8CAC583CADFE9DEE780BE5F
:01185B00008C
:10001E00BB010CE58229F582E5833AF583E0225097
:10002E0006E92582F8E622BBFE06E92582F8E222E1
:0D003E00E58229F582E5833AF583E49322FB
:10004B00BB010989828A83F8E028F022500327F745
:10005B0022BBFE05F8E328F3228A838982F8E49316
:02006B00282249
:10006D00BB010FF8E58229F582E5833AF583E02897
:10007D00F0225009C58229F8E58226F622BBFE0939
:10008D00C58229F8E22582F222F8EA2583F583E973
:03009D0093282283
:1000A000BB010689828A83F0225002F722BBFE013F
:0200B000F32239
:1000B200F8BB010DE58229F582E5833AF583E8F084
:1000C200225006E92582C8F622BBFE05E92582C830
:0200D200F22218
:1000D400C5F0F8A3E028F0C5F0F8E58215827002B7
:0600E4001583E038F02254
:1000EA00A3F8E0C5F025F0F0E582158270021583C9
:0600FA00E0C838F0E82226
:0C010000ECF0A3EDF0A3EEF0A3EFF02272
:10010C00BB010DE58229F582E5833AF583020252A3
:10011C005007E92582F8020239BBFE07E92582F86F
:04012C000202832226
:10013000BB011A89828A83D0F0D0E0F8D0E0F9D0F0
:10014000E0FAD0E0FBE8C0E0C0F00202B75016E9E8
:10015000F8D083D082D0E0F9D0E0FAD0E0FBC082C2
:10016000C0830202A5BBFE16E9F8D083D082D0E09E
:0F017000F9D0E0FAD0E0FBC082C0830202C922BE
:10017F00BB010DE58229F582E5833AF5830202AED4
:10018F005007E92582F802029CBBFE07E92582F899
:10019F000202C0E58229F582E5833AF5830202D295
:1001AF00BB0120E58229F582E5833AF583D0F0D0B3
:1001BF00E0F8D0E0F9D0E0FAD0E0FBE8C0E0C0F022
:1001CF000202B75018E92582F8D083D082D0E0F927
:1001DF00D0E0FAD0E0FBC082C0830202A5BBFE18BC
:1001EF00E92582F8D083D082D0E0F9D0E0FAD0E0D0
:0901FF00FBC082C0830202C92288
:10020800E5092582F582E5083583F583B508048577
:1002180082092210AF06858209F50822858209F530
:0402280008D2AF2227
:0D022C00E5092582F582E5083583F583227A
:100E330090034BEEF0A3EFF0A37403F0A37443F01D
:100E430090034DE0FEA3E0F5828E83E0FEA3E0FF76
:100E53004E7003FEFF228F828E83A3A3E0FCA3E0E8
:100E6300FD90034BE0FAA3E0FBC3ED9BEC9A500A21
:100E730090034DEEF0A3EFF080C68F828E83A3A381
:100E8300E0FCA3E0C39BFDEC9AFC90034FF0A3EDC1
:100E9300F0C39410EC940050178F828E83E0FCA370
:100EA300E0FD90034DE0FAA3E0F5828A83EC8045F0
:100EB300900350E024FCF090034FE034FFF0E0FD9A
:100EC300A3E08F828E83A3A3CDF0A3EDF0EF2404E0
:100ED300FFE43EFE900350E02FFF90034FE03EFE01
:100EE30090034DF0A3EFF090034BE0FDA3E08F825E
:100EF3008E83A3A3CDF0A3EDF0EF2404FFE43EFE25
:010F030022CB
:100BF900900351EEF0A3EFF04E7003020D3790030E
:100C090045E07002A3E07003020D37900351E0FE46
:100C1900A3E024FCFFEE34FFFEA37403F0A37443A6
:100C2900F0900353E0FCA3E0F5828C83E0FCA3E0A1
:100C3900FD900355ECF0A3EDF04C6020900351E0DA
:100C4900FCA3E0FD900355E0FAA3E0FBD39DEA9CE9
:100C5900500A900353EAF0A3EBF080C5900355E0E6
:100C69007002A3E0604D8F828E83A3A3E0FCA3E012
:100C7900FD900352E02DFD900351E03CFC9003559B
:100C8900E0FAA3E0FB6D7002EA6C70278B828A831D
:100C9900A3A3E0FCA3E02404FDE43C8F828E83A39C
:100CA900A38DF01200D4900355E0FCA3E0F5828CEB
:100CB900838003900355E0FDA3E08F828E83CDF0FE
:100CC900A3EDF0900353E0FCA3E0FDF5828C83A330
:100CD900A3E0FAA3E0FBED2BFDEC3AFCED2404FDC7
:100CE900E43CFCED6F7002EC6E70338F828E83A34F
:100CF900A3E0FCA3E02404FDE43CFC900353E0FAE8
:100D0900A3E0FBF5828A83A3A3EC8DF01200D48FB4
:100D1900828E83E0FFA3E08B828A83CF800C9003CD
:0F0D290053E0FCA3E0F5828C83EEF0A3EFF02201
:10023900D083D082E493F608740193F6087402938C
:09024900F608740393F6740473C3
:10025200A8828583F0D083D08212026912026912C9
:100262000269120269E473E493A3C583C5F0C583EE
:10027200C8C582C8F0A3C583C5F0C583C8C582C8F6
:010282002259
:10028300D083D082E493F208740193F2087402934A
:09029300F208740393F274047381
:09029C00E6FB08E6FA08E6F92287
:0902A500EBF608EAF608E9F6227E
:0902AE00E0FBA3E0FAA3E0F92251
:0902B700EBF0A3EAF0A3E9F02248
:0902C000E2FB08E2FA08E2F9226F
:0902C900EBF208EAF208E9F22266
:0C02D200E493FB740193FA740293F92288
:0B185C004803430000000000000000F3
:10177A00EF4E7008FE7F01ED1D70011C900343EED1
:10178A00F0A3EFF0A3ECF0A3EDF0900343E0FEA387
:10179A00E0FFF5828E83E4F0A3F0ED24FCFDEC3447
:0C17AA00FF8F828E83A3A3F0A3EDF0223A
:00000001FF
